:020000020000FC
:1000000000C008E00EBF0FEF0DBF10D016D032D0E9
:100010000FEF05B900E068D00091790000957CD021
:10002000002705B902E30E948C00F2CF0F930FEF77
:1000300004B93898409A0F910895FF920F9300E405
:10004000F0907C00F02A00E80095F022F0927C000D
:1000500000E2F0907C00F02AF0927C0002E0F09048
:100060007A00F02AF0927A0000E800937A000F916B
:10007000FF9008952F931F930F930027A4EFB1E0F3
:100080001FEF15B920D0112715B91DD003950330E6
:10009000ACF320E001E010E0A4E6B0E005B9000F09
:1000A00012D013951730D4F305B906950CD01395DB
:1000B0001E30D4F3239522306CF3112715B90F911C
:1000C0001F912F9108950F931F93AF93BF9304E651
:1000D0001AE00150F1F71150F1F71197D1F7BF91E4
:1000E000AF911F910F9108952F931F9310917C0052
:1000F000102B10937C0010E420917A00122B1093A7
:100100007A0010917A00197F20917A00211709F066
:10011000FBCF2F911F9108950F930A950130ECF3B7
:040120000F9108959E
:00000001FF
