:020000020000FC
:100000000C9406000C9413000C94190008E00EBF29
:100010000FEF0DBF4FEF552733D017D065D057D016
:1000200078940C9411001F931FB755B91FBF1F91EF
:1000300018951F931FB700E00E945100309179007E
:1000400037BD45B91FBF1F91189544B93898409ADC
:1000500008951F9310917C00102310681F7B10627D
:1000600010937C0010917B00187F10937B001091FF
:100070007A00186A16601E7F10937A001F91089507
:100080001F9310917C0010641F77106210937C0006
:1000900010917A0012601A7F106810937A001F91F5
:1000A00008951F932F9310917C00102B10937C00C8
:1000B00010917A00106410937A001F7B20917A00CF
:1000C000211711F00C945E002F911F9108951F933A
:1000D00015B513601B7F15BD10916E0013601B7F5B
:1000E00010936E001F9108952F931F930F9304E6B2
:1000F00020E011E015B922D0110F1038D9F715B949
:100100001DD016951130D9F72395223094F311277D
:1001100015B90F911F912F9108950F931F93AF93CE
:10012000BF9304E61AE00150F1F71150F1F711976F
:10013000D1F7BF91AF911F910F9108950F931F9326
:100140002F9324E61AE02150F1F71150F1F70150F6
:10015000D1F72F911F910F910895AF93BF931197EE
:10016000F1F7BF91AF9108950F930150F1F70F91FF
:020170000895F0
:00000001FF
