:020000020000FC
:1000000001C086C008E00EBF0FEF0DBF1FD023D088
:100010003BD008D000E00E9470000091790007BD3D
:100020000C940A0002E011E0102B05B5102B15BD51
:1000300002E010916E00102B10936E0001E0109101
:100040006E00102B10936E00789408950FEF04B992
:100050003898409A089500E4F0907C00F02A00E877
:100060000095F022F0927C0000E2F0907C00F02AF3
:10007000F0927C0002E0F0907A00F02AF0927A0090
:1000800000E800937A0008951F930F9300271FEF55
:1000900015B919D0112715B916D00A950330BCF738
:1000A00001E010E005B9000F16D013951830D4F315
:1000B00005B9069510D013951031D4F3103294F38E
:1000C0000F911F91089505E0A0E0B0E01196F1F7BF
:1000D0000A95D1F70895A0E0B0E01196F1F70895E0
:1000E0002F931F9310917C00102B10937C0010E431
:1000F00020917A00122B10937A0010917A00197FC8
:1001000020917A00211709F0FBCF2F911F910895BC
:100110001F932F933F931FB725B13FEF232725B997
:0A0120001FBF3F912F911F9118950A
:00000001FF
