:020000020000FC
:1000000002C084C090C008E00EBF0FEF0DBF1AD031
:100010001ED036D003D000E061D0FDCF02E011E069
:10002000102B05B5102B15BD02E010916E00102BA2
:1000300010936E0001E010916E00102B10936E0073
:10004000789408950FEF04B93898409A089500E421
:10005000F0907C00F02A00E80095F022F0927C00FD
:1000600000E2F0907C00F02AF0927C0002E0F09038
:100070007A00F02AF0927A0000E800937A0008955E
:100080001F930F9300271FEF15B91BD0112715B928
:1000900018D003950430BCF301E010E005B9000F5F
:1000A00018D013951730D4F305B9069512D01395CF
:1000B0001E30D4F31C3184F3112715B90F911F9111
:1000C000089505E0A0E0B0E01196F1F70A95D1F7A8
:1000D0000895A0E0B0E01196F1F708952F931F93D3
:1000E00010917C00102B10937C0010E420917A007A
:1000F000122B10937A0010917A00197F20917A00C8
:10010000211709F0FBCF2F911F9108951F932F9373
:100110003F931FB725B13FEF232725B91FBF3F915D
:100120002F911F9118951F932F931FB7209179003E
:0C013000209527BD1FBF2F911F9118952F
:00000001FF
