:020000020000FC
:1000000002C094C0A0C008E00EBF0FEF0DBF1AD011
:1000100020D03CD003D000E071D0FDCF02E011E051
:10002000102B05B5102B15BD02E010916E00102BA2
:1000300010936E0001E010916E00102B10936E0073
:10004000789408950F930FEF04B93898409A0F9160
:100050000895FF920F9300E4F0907C00F02A00E8EE
:100060000095F022F0927C0000E2F0907C00F02AF3
:10007000F0927C0002E0F0907A00F02AF0927A0090
:1000800000E800937A000F91FF9008951F930F935B
:1000900000271FEF15B91BD0112715B918D00395EC
:1000A0000430BCF301E010E005B9000F1ED0139539
:1000B0001730D4F305B9069518D013951E30D4F334
:1000C0001C3184F3112715B90F911F9108950F93D7
:1000D000AF93BF9305E0A0E0B0E01196F1F70A9569
:1000E000D1F7BF91AF910F910895AF93BF93A0E067
:1000F000B0E01196F1F7BF91AF9108952F931F9340
:1001000010917C00102B10937C0010E420917A0059
:10011000122B10937A0010917A00197F20917A00A7
:10012000211709F0FBCF2F911F9108951F932F9353
:100130003F931FB725B13FEF232725B91FBF3F913D
:100140002F911F9118951F932F931FB7209179001E
:0C015000209527BD1FBF2F911F9118950F
:00000001FF
