:020000020000FC
:1000000002C096C09EC008E00EBF0FEF0DBF1AD011
:1000100020D03CD003D000E062D0FDCF02E011E060
:10002000102B05B5102B15BD02E010916E00102BA2
:1000300010936E0001E010916E00102B10936E0073
:10004000789408950F930FEF04B93898409A0F9160
:100050000895FF920F9300E4F0907C00F02A00E8EE
:100060000095F022F0927C0000E2F0907C00F02AF3
:10007000F0927C0002E0F0907A00F02AF0927A0090
:1000800000E800937A000F91FF9008952F931F933B
:100090000F93B1E0A4EF00271FEF15B938D0112757
:1000A00015B935D003950330BCF320E001E010E032
:1000B000B0E0A4E605B9000F2AD013951730D4F3A9
:1000C00005B9069524D013951E30D4F3239522301C
:1000D0006CF3112715B90F911F912F9108952F934C
:1000E0001F9310917C00102B10937C0010E4209142
:1000F0007A00122B10937A0010917A00197F2091C8
:100100007A00211709F0FBCF2F911F9108950F93CB
:100110001F93AF93BF9304E61AE00150F1F711501B
:10012000F1F71197D1F7BF91AF911F910F910895FA
:100130001F932F931FB7222725B91FBF2F911F9100
:1001400018951F932F931FB72FEF25B92091790092
:0C015000209527BD1FBF2F911F9118950F
:00000001FF
