:020000020000FC
:1000000002C098C0A4C008E00EBF0FEF0DBF1AD009
:1000100020D03CD003D000E075D0FDCF02E011E04D
:10002000102B05B5102B15BD02E010916E00102BA2
:1000300010936E0001E010916E00102B10936E0073
:10004000789408950F930FEF04B93898409A0F9160
:100050000895FF920F9300E4F0907C00F02A00E8EE
:100060000095F022F0927C0000E2F0907C00F02AF3
:10007000F0927C0002E0F0907A00F02AF0927A0090
:1000800000E800937A000F91FF9008952F931F933B
:100090000F9300271FEF15B91ED0112715B91BD0DC
:1000A00003950430BCF301E010E020E005B9000F37
:1000B00020D013951730D4F305B906951AD01395AF
:1000C0001E30D4F32395223074F3112715B90F9104
:1000D0001F912F9108950F93AF93BF9305E0A0E078
:1000E000B0E01196F1F70A95D1F7BF91AF910F915A
:1000F0000895AF93BF93A0E0B0E01196F1F7BF91E0
:10010000AF9108952F931F9310917C00102B1093A3
:100110007C0010E420917A00122B10937A00109149
:100120007A00197F20917A00211709F0FBCF2F91D7
:100130001F9108951F932F933F931FB725B13FEF52
:10014000232725B91FBF3F912F911F9118951F930A
:100150002F931FB720917900209527BD1FBF2F91A6
:040160001F9118953E
:00000001FF
