:020000020000FC
:1000000001C081C008E00EBF0FEF0DBF1FD023D08D
:100010003BD000E00E946B0000917900009507BD85
:100020000C94090002E011E0102B05B5102B15BD52
:1000300002E010916E00102B10936E0001E0109101
:100040006E00102B10936E00789408950FEF04B992
:100050003898409A089500E4F0907C00F02A00E877
:100060000095F022F0927C0000E2F0907C00F02AF3
:10007000F0927C0002E0F0907A00F02AF0927A0090
:1000800000E800937A0008951F930F9303E01FEF99
:1000900015B90E945E00112715B90E945E000A95ED
:1000A0000030ACF701E010E005B907950E9466004A
:1000B00013951032CCF30F911F91089505E0A0E045
:1000C000B0E01196F1F70A95D1F70895A0E0B0E0FD
:1000D0001196F1F708952F931F9310917C00102B28
:1000E00010937C0010E420917A00122B10937A0078
:1000F00010917A00197F20917A00211709F0FBCF27
:100100002F911F9108951F932F933F931FB725B1F0
:100110003FEF232725B91FBF3F912F911F911895BE
:00000001FF
