:020000020000FC
:100000000C941C000C94C60018951895189518951A
:100010001895189518951895189518951895189578
:100020001895189518951895189518951895189568
:10003000189518951895189508E00EBF0FEF0DBF8D
:100040000E943B000E944B000E946E000E946800CC
:100050000E94BD00A0E9B1E0413009F4889500E0BC
:100060005BD0009179007BD01FEF15B9C2D011276A
:1000700015B9B8D0F1CF1F930F930FEF04B938988B
:10008000409A04E01AB1102B1AB915B1102B15B90A
:100090000F911F910895FF920F9300E4F0907C0060
:1000A000F02A00E80095F022F0927C0000E2F09047
:1000B0007C00F02AF0927C0002E0F0907A00F02AB6
:1000C000F0927A0000E800937A000F91FF90089573
:1000D0000F930FE003BF40E00F9108953F932F93DC
:1000E0001F930F9304E620E031E010E035B9330FA1
:1000F0006AD013951730D4F335B9369564D013957B
:100100001E30D4F3239522307CF3112715B90F91BB
:100110001F912F913F9108952F931F9310917C0071
:10012000102B10937C0010E420917A00122B109376
:100130007A0010917A00197F20917A00211709F036
:10014000FBCF1F912F9108951F930F921F921A2F8B
:10015000A19FB12DA02D1F900F901F9108951F9367
:100160000F921F920695069506950695102F019FF2
:10017000002D1F900F901F9108950F9303E000939F
:10018000690001E00DBB78940F9108953F931F9390
:100190001FB73AE03150F1F731E043271FBF1F91FD
:1001A0003F9118950F931F93AF93BF9304E61AE006
:1001B0000150F1F71150F1F71197D1F7BF91AF91BD
:1001C0001F910F9108950F931F932F9324E61AE028
:1001D0002150F1F71150F1F70150D1F72F911F91F4
:1001E0000F910895AF93BF931197F1F7BF91AF911E
:0C01F00008950F930150F1F70F9108954E
:00000001FF
