:020000020000FC
:100000000C9402000E9411000E9416000E941B0026
:1000100000E00E945400009179000E946D000C9451
:10002000080008E00EBF0FEF0DBF08950FEF04B9F1
:100030003898409A089500E4F0907C00F02A00E897
:100040000095F022F0927C0000E2F0907C00F02A13
:10005000F0927C0002E0F0907A00F02AF0927A00B0
:1000600000E800937A00089505E0A0E0B0E0119662
:10007000F1F70A95D1F708951F930F9302E01FEF50
:1000800015B90E943400112715B90E9434000A9551
:100090000030ACF701E010E005B9001F13951032F5
:1000A000DCF30F911F9108952F931F9310917C0003
:1000B000102B10937C0010E420917A00122B1093E7
:1000C0007A0010917A00197F20917A00211711F09F
:1000D0000C9464002F911F910895FF92FF24F5B8AE
:1000E000013014F40C947500289A023014F40C9426
:1000F0007A00299A033014F40C947F002A9A043071
:1001000014F40C9484002B9A053014F40C94890098
:100110002C9A063014F40C948E002D9A073014F4A7
:100120000C9493002E9A083014F40C9498002F9A93
:04013000FF9008959F
:00000001FF
