:020000020000FC
:100000000C9402000BD00FD013D038D000E00E9427
:100010005A000091790066D00C94060008E00EBFEB
:100020000FEF0DBF08950FEF04B93898409A089567
:1000300000E4F0907C00F02A00E80095F022F092B5
:100040007C0000E2F0907C00F02AF0927C0002E05C
:10005000F0907A00F02AF0927A0000E800937A009B
:10006000089505E0A0E0B0E01196F1F70A95D1F708
:100070000895A0E0B0E01196F1F708952F931F9333
:100080000F9303E01FEF15B90E943100112715B936
:100090000E9431000A950030ACF701E010E005B98C
:1000A000001F0E94390013951032CCF30F911F915D
:1000B0002F9108952F931F9310917C00102B109374
:1000C0007C0010E420917A00122B10937A0010919A
:1000D0007A00197F20917A00211709F0FBCF2F9128
:1000E0001F910895FF92FF24F5B801300CF401C070
:1000F000289A02300CF401C0299A03300CF401C094
:100100002A9A04300CF401C02B9A053014F40C9494
:100110008A002C9A06300CF401C02D9A073014F492
:100120000C9493002E9A08300CF401C02F9AFF9083
:02013000089530
:00000001FF
