:020000020000FC
:1000000000C008E00EBF0FEF0DBF0FD013D02BD0F4
:1000100000E00E945A00009179002227069523955E
:100020002530E4F35FD00C9408000FEF04B9389842
:10003000409A089500E4F0907C00F02A00E80095D2
:10004000F022F0927C0000E2F0907C00F02AF09226
:100050007C0002E0F0907A00F02AF0927A0000E84A
:1000600000937A0008951F930F9303E01FEF15B9D3
:100070000E944D00112715B90E944D000A950030CD
:10008000ACF701E010E005B9001F0E945500139580
:100090001032CCF30F911F91089505E0A0E0B0E07D
:1000A0001196F1F70A95D1F70895A0E0B0E0119606
:1000B000F1F708952F931F9310917C00102B10934C
:1000C0007C0010E420917A00122B10937A0010919A
:1000D0007A00197F20917A00211709F0FBCF2F9128
:1000E0001F910895FF92FF24F5B801300CF401C070
:1000F000289A02300CF401C0299A03300CF401C094
:100100002A9A04300CF401C02B9A05300CF401C07B
:100110002C9A06300CF401C02D9A07300CF401C063
:0E0120002E9A08300CF401C02F9AFF9008951B
:00000001FF
