:020000020000FC
:1000000000C008E00EBF0FEF0DBF0FD013D02BD0F4
:1000100000E00E9451000091790022270695239567
:100020002530E4F356D00C9408000FEF04B938984B
:10003000409A089500E4F0907C00F02A00E80095D2
:10004000F022F0927C0000E2F0907C00F02AF09226
:100050007C0002E0F0907A00F02AF0927A0000E84A
:1000600000937A0008953F932F931F930F9304E614
:1000700020E031E010E035B9330F61D0139517302F
:10008000D4F335B936955BD013951E30D4F3239550
:1000900022307CF3112715B90F911F912F913F91B9
:1000A00008952F931F9310917C00102B10937C00C8
:1000B00010E420917A00122B10937A0010917A00AC
:1000C000197F20917A00211709F0FBCF2F911F9102
:1000D0000895FF92FF24F5B801300CF401C0289A6E
:1000E00002300CF401C0299A03300CF401C02A9AA2
:1000F00004300CF401C02B9A05300CF401C02C9A8A
:1001000006300CF401C02D9A07300CF401C02E9A71
:1001100008300CF401C02F9AFF9008950F931F939D
:10012000AF93BF9304E61AE00150F1F71150F1F7D5
:100130001197D1F7BF91AF911F910F9108950F9330
:100140001F932F9324E61AE02150F1F71150F1F795
:100150000150D1F72F911F910F910895AF93BF9345
:100160001197F1F7BF91AF9108950F930150F1F7F7
:040170000F9108954E
:00000001FF
