:020000020000FC
:100000000C9402000E9413000E9418000E941D0020
:100010000E943E0000E00E945600009179000E947C
:100020006F000C940A0008E00EBF0FEF0DBF08959B
:100030000FEF04B93898409A089500E4F0907C00DE
:10004000F02A00E80095F022F0927C0000E2F090A7
:100050007C00F02AF0927C0002E0F0907A00F02A16
:10006000F0927A0000E800937A00089505E0A0E09D
:10007000B0E01196F1F70A95D1F708951F930F9309
:1000800002E01FEF15B90E943600112715B90E9432
:1000900036000A950030ACF701E010E005B9001F0A
:1000A00013951032DCF30F911F9108952F931F9336
:1000B00010917C00102B10937C0010E420917A00AA
:1000C000122B10937A0010917A00197F20917A00F8
:1000D000211711F00C9466002F911F910895FF9243
:1000E000FF24F5B8013014F40C947700289A0230FC
:1000F00014F40C947C00299A033014F40C948100BD
:100100002A9A043014F40C9486002B9A053014F4C7
:100110000C948B002C9A063014F40C9490002D9AB9
:10012000073014F40C9495002E9A083014F40C94B3
:080130009A002F9AFF90089538
:00000001FF
