:020000020000FC
:100000000C9402000E9416000E9411000E941B0026
:1000100000E00E942E00009179000E9447000C949D
:1000200008000FEF04B93898409A089508E00EBF11
:100030000FEF0DBF089500E4F0907C00F02A00E877
:100040000095F022F0927C0002E0F0907A00F02A15
:10005000F0927A0000E800937A0008952F931F939E
:1000600010917C00102B10937C0010E420917A00FA
:10007000122B10937A0010917A00197F20917A0048
:10008000211711F00C943E002F911F91089501301B
:1000900014F40C944C00289A023014F40C9451007F
:1000A000299A033014F40C9456002A9A043014F45C
:1000B0000C945B002B9A053014F40C9460002C9A7D
:1000C000063014F40C9465002D9A073014F40C9447
:1000D0006A002E9A083014F40C946F002F9A089539
:00000001FF
