:020000020000FC
:100000000C9402000E9411000E9416000E941B0026
:1000100000E00E942E00009179000E9447000C949D
:10002000080008E00EBF0FEF0DBF08950FEF04B9F1
:100030003898409A089500E4F0907C00F02A00E897
:100040000095F022F0927C0002E0F0907A00F02A15
:10005000F0927A0000E800937A0008952F931F939E
:1000600010917C00102B10937C0010E420917A00FA
:10007000122B10937A0010917A00197F20917A0048
:10008000211711F00C943E002F911F910895FF92BB
:10009000FF24F5B8013014F40C944F00289A023074
:1000A00014F40C945400299A033014F40C9459005D
:1000B0002A9A043014F40C945E002B9A053014F440
:1000C0000C9463002C9A063014F40C9468002D9A5A
:1000D000073014F40C946D002E9A083014F40C942C
:0800E00072002F9AFF900895B1
:00000001FF
